:020000040800F2
:10000000004002200122000851220008512200086D
:1000100000000000000000000000000000000000E0
:100020000000000000000000000000005122000855
:1000300000000000000000005122000851220008CA
:10004000512200080000000051220008512200083F
:1000500051220008512200085122000851220008B4
:1000600051220008512200085122000851220008A4
:10007000512200085122000851220008000000000F
:1000800051220008A11F0008512200085122000837
:100090005122000851220008512200085122000874
:1000A000512200085122000851220008E91F0008CF
:0800B000512200085122000852
:1000B80010B5064C2378002B07D1054B002B02D036
:1000C800044800E000BF0123237010BD4800002051
:1000D80000000000AC220008044B10B5002B03D030
:1000E8000349044800E000BF10BDC04600000000FE
:1000F8004C000020AC220008002243088B4274D335
:1001080003098B425FD3030A8B4244D3030B8B4210
:1001180028D3030C8B420DD3FF22090212BA030C19
:100128008B4202D31212090265D0030B8B4219D3FA
:1001380000E0090AC30B8B4201D3CB03C01A52411A
:10014800830B8B4201D38B03C01A5241430B8B4262
:1001580001D34B03C01A5241030B8B4201D30B034B
:10016800C01A5241C30A8B4201D3CB02C01A524172
:10017800830A8B4201D38B02C01A5241430A8B4235
:1001880001D34B02C01A5241030A8B4201D30B021E
:10019800C01A5241CDD2C3098B4201D3CB01C01A38
:1001A800524183098B4201D38B01C01A5241430942
:1001B8008B4201D34B01C01A524103098B4201D330
:1001C8000B01C01A5241C3088B4201D3CB00C01A9D
:1001D800524183088B4201D38B00C01A5241430815
:1001E8008B4201D34B00C01A5241411A00D201463A
:1001F800524110467047FFE701B5002000F006F8AD
:1002080002BDC0460029F7D076E770477047C04660
:10021800B0B584B000AF7860254BDB689847244BB5
:100228005B699847224B5B6A002B03D0204B9B6A83
:10023800002B14D11E4B1B6A7A68120CD2B2100024
:1002480098471B4B1B6A7A68120AD2B2100098476B
:10025800174B1B6A7A68D2B21000984714E07B6883
:100268001B0CDAB20C217B181A707B681B0ADAB2F5
:100278007B185A707B68DAB27B189A700C4B9B6AB1
:100288007A18032110009847094BDB690F257C1960
:10029800984703002370064B9B699847044B1B69DA
:1002A80098477B191B781800BD4604B0B0BDC046FE
:1002B8000400002080B584B000AF78600A00FB1C01
:1002C8001A70264BDB689847244B5B6998477B6814
:1002D800042213437B60214B9B6A002B1AD11F4BCE
:1002E8001B6A7A68120CD2B2100098471B4B1B6A23
:1002F8007A68120AD2B210009847184B1B6A7A68BB
:10030800D2B210009847154B1B6AFA1C12781000DD
:10031800984718E07B681B0CDAB20C217B181A701E
:100328007B681B0ADAB27B185A707B68DAB27B18D2
:100338009A707B18FA1C1278DA70084B9B6A7A1844
:10034800042110009847054B9B699847034B1B698C
:100358009847C046BD4604B080BDC0460400002092
:10036800B0B586B000AFF860B960BB1D1A80324BDB
:10037800DB689847304B5B6998472F4B5B6A002BCB
:1003880003D02D4B9B6A002B2FD12B4B1B6AFA688D
:10039800120CD2B210009847274B1B6AFA68120A4F
:1003A800D2B210009847244B1B6AFA68D2B21000E8
:1003B80098471623FB1800221A800EE01E4BDB69B3
:1003C80016257A191288B9688C1898470300237083
:1003D8007B191A887B1901321A801623FA18BB1D5B
:1003E80012881B889A42E9D31BE0FB681B0CDAB21F
:1003F80010217B181A70FB681B0ADAB27B185A7036
:10040800FB68DAB27B189A700B4B9B6A7A18032147
:1004180010009847084B5B6ABA1D1188BA6810002B
:100428009847054B9B699847034B1B699847C046FB
:10043800BD4606B0B0BDC0460400002090B587B0E8
:1004480000AFF860B960BB1D1A80324BDB68984773
:10045800304B5B699847FB6804221343FB602D4BC4
:100468009B6A002B2FD12B4B1B6AFA68120CD2B255
:1004780010009847274B1B6AFA68120AD2B210007C
:100488009847244B1B6AFA68D2B210009847162383
:10049800FB1800221A800EE01E4B1B6A16243A191C
:1004A8001288B9688A181278100098473B191A8878
:1004B8003B1901321A801623FA18BB1D12881B88B3
:1004C8009A42E9D31BE0FB681B0CDAB210217B18B7
:1004D8001A70FB681B0ADAB27B185A70FB68DAB22A
:1004E8007B189A700B4B9B6A7A1803211000984767
:1004F800084B9B6ABA1D1188BA6810009847054BCB
:100508009B699847034B1B699847C046BD4607B08F
:1005180090BDC04604000020B0B584B000AF020012
:10052800FB1D1A700E23FB1800221A800C23FB18DF
:1005380000221A80FB1D1B789B000133DB00802200
:100548009201944663441800FFF762FE03001A0004
:100558000C257B191A807B191B881B029CB2FB1D7A
:100568001B789B000133DB0084229201944663448C
:100578001800FFF74DFE03001A007B19A2181A8015
:100588007B191B88002B25D0FB1D1B789B00013392
:10059800DB0080229201944663441800FFF738FE7E
:1005A80003001A000E257B191A807B191B881B0271
:1005B8009CB2FB1D1B789B000133DB008422920157
:1005C800944663441800FFF723FE03001A007B19C2
:1005D800A2181A800E217A180C23FB1812881B887F
:1005E8009A42A7D17B181B881800BD4604B0B0BD3D
:1005F800B0B584B000AF0200FB1D1A700E23FB18C3
:1006080000221A800C23FB1800221A80FB1D1B787D
:100618009B000133DB009822920194466344180042
:10062800FFF7F6FD03001A000C257B191A807B19C9
:100638001B881B029CB2FB1D1B789B000133DB004F
:100648009C229201944663441800FFF7E1FD0300E1
:100658001A007B19A2181A807B191B88002B25D039
:10066800FB1D1B789B000133DB0098229201944606
:1006780063441800FFF7CCFD03001A000E257B1910
:100688001A807B191B881B029CB2FB1D1B789B00E0
:100698000133DB009C229201944663441800FFF763
:1006A800B7FD03001A007B19A2181A800E217A18C8
:1006B8000C23FB1812881B889A42A7D17B181B8829
:1006C8001800BD4604B0B0BDB0B584B000AF396005
:1006D8001100FB1D021C1A703B1D0A1C1A800E25F6
:1006E8007B1900221A800023BB603B1D1B88002B4E
:1006F8005DD0FB1D1B789B000133DB00902292012B
:10070800944663441800FFF783FD03001B029CB264
:10071800FB1D1B789B000133DB0094229201944659
:1007280063441800FFF774FD03001A007B19A21830
:100738001A802C007B191B881A02FB1D1B789B0052
:100748000233DB00D318BB603B1D1A883968BB68CD
:100758001800FFF773FE3B1939193A1D09881288EA
:100768008A181A80FB1D1B789B000133DB0090223E
:100778009201944663441A003B191B881B0A9BB2DA
:10078800DBB219001000FFF795FDFB1D1B789B00DD
:100798000133DB0094229201944663441A003B190A
:1007A8001B88DBB219001000FFF784FD00E0C0468B
:1007B800BD4604B0B0BDB0B584B000AF396011001B
:1007C800FB1D021C1A703B1D0A1C1A800E257B1982
:1007D80000221A800023BB603B1D1B88002B5DD0C4
:1007E800FB1D1B789B000133DB00A022920194467D
:1007F80063441800FFF70CFD03001B029CB2FB1DAD
:100808001B789B000133DB00A422920194466344C9
:100818001800FFF7FDFC03001A007B19A2181A80C4
:100828002C007B191B881A02FB1D1B789B000333C5
:10083800DB00D318BB603B1D1A883968BB681800F9
:10084800FFF78EFD3B1939193A1D098812888A1855
:100858001A80FB1D1B789B000133DB00A02292014C
:10086800944663441A003B191B881B0A9BB2DBB2EF
:1008780019001000FFF71EFDFB1D1B789B000133BC
:10088800DB00A4229201944663441A003B191B889A
:10089800DBB219001000FFF70DFD00E0C046BD46B1
:1008A80004B0B0BDB0B588B000AF05000C001000B2
:1008B8001900FB1D2A1C1A70BB1D221C1A703B1D37
:1008C800021C1A80FB1C0A1C1A701E23FB1800222B
:1008D8001A80FB1D1B78072B02D901235B4215E107
:1008E800BB1D1B780F2213400E2B1DD019DC0B2BC0
:1008F80017DC0A2B18DA012B05D0002B11DD023B7F
:10090800022B0ED810E00823F918F0231B0104224B
:100918001800FFF725FDBB68002B07D103235B42B6
:10092800F4E005235B42F1E0C04600E0C046FB1C52
:100938001B780422134002D006235B42E6E0FB1C2E
:100948001B78002B2BD0BB1D1B78012B02D0022B50
:1009580008D024E0FB1C1B78212213401CD106235D
:100968005B42D3E0FB1C1B782022134007D0FB1C02
:100978001B785BB2002B02DB06235B42C6E0FB1C44
:100988001B781022134009D0FB1C1B785BB2002B8C
:1009980004DB06235B42B9E0C04600E0C046FB1D0D
:1009A8001B78180000F0C4F8FB1D1B789B0001336E
:1009B800D800FB1C1B785BB20F2293435AB2BB1DB5
:1009C8001B785BB213435BB2DBB21900FFF772FC12
:1009D8003B1D1B88002B0FD14E4B1B885A1C91B214
:1009E8004C4A11803A1D13804A4B1B884A4A93424D
:1009F80002D1484B494A1A80FB1D1B789B000133E2
:100A0800DB008022D200944663441A003B1D1B88F9
:100A18001B0A9BB2DBB219001000FFF74BFCFB1D51
:100A28001B789B000133DB00A022D200944663446C
:100A38001A003B1D1B88DBB219001000FFF73AFCB7
:100A4800FB1D1B789B000133DB000133FF330121C1
:100A58001800FFF72FFCC046FB1D1B789B000133D5
:100A6800DB000133FF331800FFF7D2FB031EF3D17D
:100A7800FB1D1B7801229A4013001BB2DB431BB2FB
:100A8800274A128812B213401BB29AB2244B1A801A
:100A9800FB1C1B7801221A40FB1D1B789A4013008F
:100AA8001AB21F4B1B881BB213431BB29AB21C4BC2
:100AB8001A80FB1D1B7801229A4013001BB2DB43EE
:100AC8001BB2184A128812B213401BB29AB2154BC5
:100AD8001A80FB1D1A78144B52000021D152FB1DBD
:100AE8001B78124A0021D154C046FB1D1B789B007D
:100AF8000133DB00C0229200944663441800FFF7DC
:100B080087FB031EF1D0FB1D1B785BB21800BD46A6
:100B180008B0B0BD00000020F0FF000000C0FFFFDB
:100B28006400002066000020680000207800002093
:100B380080B582B000AF0200FB1D1A70FB1D1B7848
:100B4800072B02D901235B425FE0FB1D1B789B004A
:100B58000133DB000133FF3310211800FFF7AAFB34
:100B6800C046FB1D1B789B000133DB000133FF33BC
:100B78001800FFF74DFB031EF3D1FB1D1B789B00EC
:100B88000133DB0080229200944663441F21180041
:100B9800FFF790FBFB1D1B7801229A4013001BB244
:100BA800DB431BB21B4A128812B213401BB29AB223
:100BB800184B1A80FB1D1B7801229A4013001BB2A8
:100BC800DB431BB2144A128812B213401BB29AB20A
:100BD800114B1A80FB1D1A78104B52000021D1527C
:100BE800FB1D1B780E4A0021D154C046FB1D1B7803
:100BF8009B000133DB00C022920094466344180036
:100C0800FFF706FB031EF1D101231800BD4602B011
:100C180080BDC046640000206600002068000020F7
:100C28007800002080B582B000AF0200FB1D1A706A
:100C3800FB1D1B78072B02D901235B4253E0FB1DE8
:100C48001B789B000133DB001800FFF7E1FA030073
:100C58001A0003231340012B02D005235B4242E014
:100C6800FB1D1B789B000133DB00C02292009446D9
:100C780063441800FFF7CCFA0300132B02D00323B8
:100C88005B4230E0FB1D1B789B000133DB00013326
:100C9800FF3302211800FFF70DFBC046FB1D1B7830
:100CA8009B000133DB000133FF331800FFF7B0FA74
:100CB800031EF3D107E0FB1D1B781800FFF738FF70
:100CC80004235B420FE0FB1D1B789B000133DB0014
:100CD800C0229200944663441800FFF799FA030073
:100CE800142BE8D101231800BD4602B080BD0000D6
:100CF800B0B584B000AF39601100FB1D021C1A703A
:100D08003B1D0A1C1A800F23FB1800221A700C23A3
:100D1800FB1800221A80FB1D1B78072B02D9012320
:100D28005B4281E1FB1D1B789B000133DB0018004F
:100D3800FFF76EFA03001A000F231340012B02D0AD
:100D480005235B4270E13B1D1B88002B02D10E235B
:100D58005B4269E1FB1D1B789B000133DB00C0226D
:100D68009200944663440F257C191800FFF750FA47
:100D7800030023707B191B78172B06D07B191B786F
:100D88001C2B02D007235B424EE1A94B1B881A009B
:100D9800FB1D1B781A4113000122134045D0FB1D8F
:100DA8001B789B000133DB00802292009446634449
:100DB8001800FFF72DFA030019000F203B181F2217
:100DC8000A401A703B181B78102213401DD0FB1DD7
:100DD8001B789B000133DB00802292009446634419
:100DE80010211800FFF766FAFB1D1B7801229A40B4
:100DF80013001BB2DB431BB28D4A128812B2134098
:100E08001BB29AB28A4B1A800FE00F23FB181B788B
:100E18000822134007D0FB1D1B781800FFF788FE37
:100E28000D235B4200E10023FEE0FB1D1B789B00C5
:100E38000133DB00F8225201944663441800FFF79F
:100E4800E7F903001A000C217B1892021A803A1D58
:100E58007B1812881B889A4203D93B1D7A1812887E
:100E68001A800C23FC18FB1D1B781800FFF754FB95
:100E780003002380FB1D1B789B000133DB00C0228D
:100E88009200944663440F257C191800FFF7C0F9B7
:100E9800030023707B191B78172B0FD07B191B7845
:100EA8001C2B0BD07B191B78002B04D1FB1D1B7846
:100EB8001800FFF73DFE07235B42B5E05D4B1B883A
:100EC8001A00FB1D1B781A4113000122134008D099
:100ED8003A1D0C23FB1812881B889A4201D900235B
:100EE800A2E03A1D0C23FB1812881B889A4200D9ED
:100EF800B7E7C0463B1D1A883968FB1D1B781800E8
:100F0800FFF7E2FB4A4B1B881A00FB1D1B781A41AE
:100F18001300012213405FD040E0FB1D1B789B00AB
:100F28000133DB00C0229200944663440F257C19EC
:100F38001800FFF76DF9030023707B191B78172B36
:100F480020D07B191B781C2B1CD07B191B78002BFD
:100F580010D0FB1D1B789B000133DB008022920020
:100F6800944663441800FFF753F903001A00082356
:100F7800134004D0FB1D1B781800FFF7D9FD072389
:100F88005B4251E02B4B1B881A00FB1D1B781A4152
:100F980013000122134001D0002345E0FB1D1B78FC
:100FA8009B000133DB0080229200944663441800C2
:100FB800FFF72EF903001A0010231340ADD0FB1DD4
:100FC8001B789B000133DB00802292009446634427
:100FD80010211800FFF76EF9FB1D1B789B000133E9
:100FE800DB000133FF3320211800FFF763F9C04607
:100FF800FB1D1B789B000133DB000133FF33180016
:10100800FFF706F9031EF3D1FB1D1B7801229A4056
:1010180013001AB2064B1B881BB213431BB29AB2B9
:10102800034B1A803B1D1B881800BD4604B0B0BD99
:101038006600002064000020F0B585B000AF39607C
:101048001100FB1D021C1A703B1D0A1C1A800F237D
:10105800FB1800221A700C23FB1800221A80FB1DB3
:101068001B78072B02D901235B42C1E0FB1D1B78CB
:101078009B000133DB001800FFF7CAF803001A00D1
:101088000F231340012B02D005235B42B0E03B1D28
:101098001B88002B02D10E235B42A9E0FB1D1B78A5
:1010A8009B000133DB00F022520194466344180090
:1010B800FFF7AEF803001A000C217B1892021A8081
:1010C8007A183B1D12881B889A4203D23B1D7A1856
:1010D80012881A800C26BC19FB1D1B781800FFF714
:1010E80087FA03002380FB1D1B789B000133DB007C
:1010F800C0229200944663440F257C191800FFF71C
:1011080087F8030023707B191B78172B2ED07B19C7
:101118001B781C2B22D1BB191B88002B38D1FB1D37
:101128001B781800FFF7F8F903001C00FB1D1B785B
:101138009B000133DB00F8225201944663441800F7
:10114800FFF766F803009B029C420FD1FB1D1B783A
:101158001800FFF7EDFC07235B4249E0FB1D1B78F5
:101168001800FFF7E5FC07235B4241E0224B1B8890
:101178001A00FB1D1B781A4113000122134001D0ED
:10118800002335E00C23FB181B88002B02D1A1E7B4
:10119800C04600E0C0460C217A183B1D12881B8807
:1011A8009A4203D23B1D7A1812881A803B1D1A886E
:1011B8003968FB1D1B781800FFF7FDFAFB1D1B782B
:1011C8009B000133DB000133FF3340211800FFF798
:1011D80071F8C046FB1D1B789B000133DB0001330F
:1011E800FF331800FFF714F8031EF3D13B1D1B88CB
:1011F8001800BD4605B0F0BD6400002080B500AF02
:10120800C046BD4680BD80B500AFC046BD4680BD66
:1012180080B500AFC046BD4680BD80B500AFC046B2
:10122800BD4680BD80B582B000AF78607B681B7812
:10123800DBB21800BD4602B080BD80B582B000AFF9
:1012480078600A00FB1C1A707B68FA1C12781A7006
:10125800C046BD4602B080BD80B500AF002318006F
:10126800BD4680BD80B582B000AF0200FB1D1A707C
:10127800C046BD4602B080BD80B582B000AF786080
:1012880039607B68002B02D03B68002B06D1094BE4
:10129800094A5A61074B094A9A6106E0054B7A6880
:1012A8005A61044B3A689A61C046C046BD4602B0CE
:1012B80080BDC0460400002019120008231200084F
:1012C80080B582B000AF78603960C0460F4B1B888C
:1012D8001A0080239B001340F8D07B68002B02D0B3
:1012E8003B68002B06D1094B094ADA61074B094ACA
:1012F8001A6206E0054B7A68DA61044B3A681A62AA
:10130800C046C046BD4602B080BDC04604000020AD
:10131800611200086D120008F0B587B000AF391DE2
:1013280090231B0106221800FFF71AF81424391914
:1013380080235B0004221800FFF712F810257919A2
:10134800A023DB0004221800FFF70AF80C26B919BD
:10135800F0231B0104221800FFF702F88021002067
:10136800FEF7A8FF0020FEF753FF391D90231B014D
:1013780006221800FFF762F8391980235B0004225F
:101388001800FFF75BF87919A023DB000422180086
:10139800FFF754F8B919F0231B0104221800FFF7CE
:1013A8004DF8C046BD4607B0F0BD90B585B000AF5A
:1013B800786039600E243B1900221A70FFF7ACFFE1
:1013C8007B68002B55D03B1900221A700F23FB189D
:1013D80000221A701EE00F23FB181B785BB27A6894
:1013E800D3181A780E217B181B78D318DAB27B1819
:1013F8001A707B181B785BB2102B02DD01235B424D
:1014080092E00F217B181B785BB2DBB20133DAB2B2
:101418007B181A700F22BB181B785BB2072BDADD1A
:10142800BB1800221A701EE00F22BB181B785BB293
:101438009B000133DB00F82149018C466344180006
:101448001400BB181B785BB27A68D3181B78190094
:10145800FEF730FF21007B181B785BB2DBB201334B
:10146800DAB27B181A700F23FB181B785BB2072BB4
:10147800DADD3B68002B56D00E23FB1800221A70C9
:101488000F23FB1800221A701EE00F23FB181B788D
:101498005BB23A68D3181A780E217B181B78D318D8
:1014A800DAB27B181A707B181B785BB2102B02DD3E
:1014B80001235B4238E00F217B181B785BB2DBB25B
:1014C8000133DAB27B181A700F22BB181B785BB293
:1014D800072BDADDBB1800221A701EE00F22BB189A
:1014E8001B785BB29B000133DB00F02149018C467D
:1014F800634418001400BB181B785BB23A68D31811
:101508001B781900FEF7D6FE21007B181B785BB20A
:10151800DBB20133DAB27B181A700F23FB181B7881
:101528005BB2072BDADD00231800BD4605B090BD7D
:1015380080B582B000AF7860796890231B010622DD
:101548001800FEF77BFF7B680E33190080235B00D1
:1015580004221800FEF772FF7B680A331900A023E3
:10156800DB0004221800FEF769FF7B68991DF02351
:101578001B0104221800FEF761FF7B689A7C0B4B65
:101588001A707B68DA7C094B5A707B681A7D074BA6
:101598009A707B685A7D054BDA707B689A7D044B9C
:1015A8001A70C046BD4602B080BDC046800000200B
:1015B80084000020B0B586B000AF00F04BF81725C6
:1015C8007C19E4239B011800FEF722FE0300237018
:1015D8007B191B78042B27D1174A184B11001800C8
:1015E800FFF74AFE164A174B11001800FFF768FE6E
:1015F8000C243B19144A03CA03C33B1D124A03CAED
:1016080003C33A1D3B1911001800FFF7CEFE0F4B1C
:101618001800FFF78DFF0E4A002301210020FFF775
:1016280041F90020FFF7FEFA1723FB181B78180072
:10163800BD4606B0B0BDC046A11600088D1600080C
:10164800C7160008B5160008C4220008300000209C
:101658008813000080B500AF094B802252039A61BD
:10166800FA239B00180000F08DFB054B10229A61AD
:10167800FA23DB00180000F085FBC046BD4680BD9C
:101688000008005080B500AFA023DB05802252047B
:101698009A61C046BD4680BD80B500AFA023DB057A
:1016A800802252009A61C046BD4680BD80B500AF19
:1016B800FF2000F04FFC03001800BD4680BD80B538
:1016C80082B000AF0200FB1D1A70FB1D1B781800CA
:1016D80000F040FCC046BD4602B080BD80B582B077
:1016E80000AF0200FB1D1A70FB1D1B787F2B09D869
:1016F800FB1D1B781A001F231A40044B012191403F
:101708000A001A60C046BD4602B080BD00E100E094
:1017180090B583B000AF02003960FB1D1A70FB1D45
:101728001B787F2B28D82F4AFB1D1B785BB29B08A0
:10173800C0339B009B58FA1D1278110003220A40FF
:10174800D200FF2191400A00D2431A4011003B68A1
:101758009B01FF221A40FB1D1B781800032303403E
:10176800DB009A401F48FB1D1B785BB29B080A43AD
:10177800C0339B001A5031E01B4AFB1D1B7819002F
:101788000F230B40083B9B0806339B00D3180433F8
:101798001B68FA1D1278110003220A40D200FF21AB
:1017A80091400A00D2431A4011003B689B01FF2276
:1017B8001A40FB1D1B78180003230340DB009A40E6
:1017C8000948FB1D1B781C000F232340083B9B087E
:1017D8000A4306339B00C31804331A60C046BD464B
:1017E80003B090BD00E100E000ED00E090B583B0EB
:1017F80000AF7860384B5A6B374B01210A435A6364
:10180800354B1A6C344B8021C9010A431A64A02352
:10181800DB051A68A023DB0530490A401A60A023BB
:10182800DB051A68A023DB05A02189030A431A6097
:10183800A023DB055A6AA023DB0529490A405A621E
:10184800A023DB055A6AA023DB05882149000A4347
:101858005A62244B1A68234B01218A431A607B6819
:101868005B08214A944663441E4C79681800FEF7C9
:1018780043FC0300E3601B4B1A681A4B0C210A4314
:101888001A60184B5A68174B1202120A5A60154B05
:101898005A68144BA02109050A435A60114B1A686B
:1018A800104B20210A431A600E4B1A680D4B8021F9
:1018B800C9010A431A600B4B1A680A4B01210A43F3
:1018C8001A6001211B20FFF723FF1B20FFF706FFEB
:1018D800C046BD4603B090BD00100240FFFFC3FFE5
:1018E8000FF0FFFF003801400090D00380B582B0B0
:1018F80000AF0200FB1D1A70C046064BDB69802250
:101908001340FAD0034BFA1D12789A62C046BD46BE
:1019180002B080BD0038014080B584B000AF786067
:101928000023FB6009E0FB687A68D3181B7818006D
:10193800FFF7DCFFFB680133FB60FB687A68D318AC
:101948001B78002BEFD1C046C046BD4604B080BD11
:1019580080B582B000AF78607B681800FFF7DCFFC5
:101968000D20FFF7C3FF0A20FFF7C0FFC046BD46A2
:1019780002B080BD80B500AF634B5A6B624B022149
:101988000A435A63604BDA6B5F4B04210A43DA63FC
:101998005E4B1A685D4B5E490A401A605B4B1A68D9
:1019A8005A4BA82189020A431A60584B5A68574B68
:1019B80058490A405A60554B9A68544BFC21890291
:1019C8000A439A60514BDA68504B51490A40DA6031
:1019D8004E4B1A6A4D4B50490A401A624B4B1A6AD1
:1019E8004A4B902109050A431A62484B1A6A474B29
:1019F800120112091A62454B1A6A444B90210906D2
:101A08000A431A62414B5A6A404B0F218A435A6271
:101A18003E4B5A6A3D4B09210A435A623F4B3F22CB
:101A28009A623E4BFF22DA623C4B9A693B4B70212B
:101A38008A439A61394B9A69384B60210A439A6103
:101A4800364B9A69354B08210A439A61334B9A6998
:101A5800324B33490A409A61304B9A692F4BC02167
:101A6800C9010A439A612D4B9A692C4B80210901BF
:101A78000A439A61294BDA69284B70218A43DA6153
:101A8800264BDA69254B60210A43DA61234BDA6970
:101A9800224B08210A43DA61204B00225A631F4B6C
:101AA80000229A631D4BFF22DA631C4B1A6A1B4BF8
:101AB80001210A431A62194B1A6A184B10210A436A
:101AC8001A62164B1A6A154B802149000A431A629A
:101AD800124B1A68114B80210A431A600F4B5A693E
:101AE8000E4B01210A435A610C4B5A6C0B4B802157
:101AF80009020A435A64094B1A68084B01210A4330
:101B08001A60C046BD4680BD001002400004005067
:101B1800FF0FFCFF3FFEFFFFFFFFFFF00008004044
:101B2800FF8FFFFF80B500AF054B00225A63044BBF
:101B3800FF229A63024B0022DA63C046BD4680BD8D
:101B48000008004080B500AF054B00225A63044BE3
:101B580000229A63024B0022DA63C046BD4680BD6C
:101B68000008004080B582B000AF0200FB1D1A706B
:101B7800FB1D1B787F2B09D8FB1D1B781A001F2320
:101B88001A40044B012191400A001A60C046BD4624
:101B980002B080BD00E100E080B500AF524B5A6B47
:101BA800514B04210A435A634F4B5A6B4E4B022147
:101BB8000A435A634C4B5A6B4B4B01210A435A63F5
:101BC800A023DB051A68A023DB0503218A431A60DA
:101BD800A023DB051A68A023DB0501210A431A604C
:101BE800A023DB055A68A023DB0501218A435A603C
:101BF800A023DB059A68A023DB0503218A439A60AA
:101C0800A023DB059A68A023DB0502210A439A601A
:101C1800A023DB05DA68A023DB0503218A43DA6009
:101C2800A023DB051A68A023DB050C218A431A6070
:101C3800A023DB05DA68A023DB050C218A43DA60E0
:101C48002A4B1A68294B2A490A401A60274B1A68F6
:101C5800264B802149000A431A60244B5A68234BBB
:101C680010218A435A60214B9A68204B20490A4028
:101C78009A601E4BDA681D4B1D490A40DA601B4BFF
:101C88001A681A4B1B490A401A60184B1A68174BF6
:101C9800802149040A431A60144B5A68134B1649A9
:101CA8000A405A60114B9A68104B12490A409A60D0
:101CB8000E4BDA680D4B0F490A40DA600F4B1A6871
:101CC8000E4B30218A431A600C4BDA680B4B3021DB
:101CD8008A43DA60094BDA68084B10210A43DA6054
:101CE800C046BD4680BDC0460010024000080050F6
:101CF800FFFCFFFFFFFFFFFCFFEFFFFF00040050AA
:101D080080B500AF1C4B1A681B4B802149020A435F
:101D18001A60C046184B1A6880239B021340F9D0FA
:101D2800154B164ADA60144B1A68134B8021490484
:101D38000A431A60C046104B1A6880239B0413405C
:101D4800F9D00F4B1A680E4B07210A431A600A4B49
:101D58009B68072293431A00074B02210A439A60A3
:101D6800C046054B9B6838221340102BF9D1C0465A
:101D7800C046BD4680BDC04600100240031000109A
:101D88000020024080B584B000AF7860154BBB607E
:101D9800BB68FA2291001800FEF7AEF903001A009A
:101DA8007B685343FB60FA6880235B049A4201D343
:101DB8000D4BFB600D4BFA68013A5A600B4B002241
:101DC8009A600A4B01221A60C046084B1A688023A1
:101DD8005B021340F9D0054B00221A60C046BD468D
:101DE80004B080BD00127A00FFFFFF0010E000E0A1
:101DF80080B500AF104BDA6B0F4B10210A43DA6342
:101E08000E4B3F229A620D4B0D4ADA620B4B0022B1
:101E18005A620A4BDA68094B01210A43DA60112039
:101E2800FFF7A0FE054B1A68044B01210A431A600C
:101E3800C046BD4680BDC0460010024000100040AC
:101E4800E703000080B500AF3D4B5A6B3C4B0221C5
:101E58000A435A633A4BDA6B394B8021C9010A436A
:101E6800DA63384B1A68374B920192091A60354B7E
:101E78001A68344BA82109060A431A60314B5A6A7A
:101E8800304B1203120B5A622E4B9A682D4BFC21D1
:101E980009060A439A602A4B5A6B294B01210A43C7
:101EA8005A63A023DB051A68A023DB0526490A40EC
:101EB8001A60A023DB051A68A023DB0580214902EC
:101EC8000A431A60A023DB055A68A023DB051F49D3
:101ED8000A405A60A023DB059A68A023DB051A494B
:101EE8000A409A60A023DB059A68A023DB058021BD
:101EF80089020A439A60A023DB05DA68A023DB0580
:101F080011490A40DA60A023DB05802252009A6159
:101F18000F4B00221A600E4B00225A600C4BC52250
:101F280092001A600A4BB82252015A60084B1A688C
:101F3800074B40210A431A60C046BD4680BDC046D3
:101F48000010024000040050FFFFFCFFFFFEFFFFEF
:101F58000038004080B582B000AF0200FB1D1A7047
:101F6800C0460B4B9B6802221340FAD0094AFB1D5E
:101F78001B781370C046064B9B6801221340FAD0A9
:101F8800044B1B78DBB21800BD4602B080BDC046CA
:101F9800003800400C38004080B500AF094B1B6981
:101FA800012213400AD0074B1A69064B01218A43C4
:101FB8001A61054B1B685A1C034B1A60C046BD4684
:101FC80080BDC046001000408800002080B500AFEA
:101FD800024B1B681800BD4680BDC0468800002023
:101FE80080B500AF214BDB69202213401DD01F4B69
:101FF8005B6ADAB21E4B1A701E4B1B78DBB21B2BC6
:102008000DD81C4B1B78DBB25A1CD1B2194A11707F
:102018001A00174B1B78D9B2174B995405E0154B8A
:1020280000221A70154B01221A70104BDA698023AE
:102038009B02134017D00D4B1A6A0C4B8021890262
:102048000A431A620B4B1B78DBB25A1CD1B2094AFD
:1020580011701A00084B00219954064B00221A707F
:10206800074B01221A70C046BD4680BD00380140AA
:102078008D0000208E000020940000208F0000209A
:102088008C00002080B582B000AFFFF739FEFFF763
:1020980071FCFFF781FDFFF7ABFEE1235B0218003F
:1020A800FFF7A4FBFFF7CEFEFFF784FA03001A0040
:1020B800484B1A70FFF78AFF03007B60464B1B688A
:1020C8007A68D21AFA239B009A421FD3424B7A6845
:1020D8001A60424B1B78002B02D0012B09D011E06B
:1020E800FFF720FD3D4B1B780133DAB23B4B1A70EA
:1020F8000CE0FFF727FD394B1B78013BDAB2374B71
:102108001A7003E0354B00221A70C046C2239B00A8
:102118001800FEF77DF803001C2B46D0CADC002B04
:1021280047D0172BC6D10020FEF762FA031E1BD03A
:102138002B4B7F2219000020FEF77EFF03003B6037
:10214800274A3B68D31800221A703B68002B3EDDF3
:10215800234B1800FFF7FCFB3B689AB2204B190091
:102168000020FEF7C5FD32E01E4B1B78DBB2012BC9
:102178002DD11D4B1A681C4B20218A431A60194B1C
:1021880000221A70194B1D2219000020FEF7B0FD1D
:10219800164B1E220021180000F057F8124B1A683F
:1021A800114B20210A431A6011E00020FEF7C0FC01
:1021B8000EE00F4A002301210020FEF773FB0020E8
:1021C800FEF730FD0B4B1800FFF7C2FB00E0C046DE
:1021D80070E7C0469000002034010020380100203C
:1021E800B40000208C00002000380140940000203A
:1021F80088130000CC2200080D48854600E000BF87
:102208000C480D490D4A002302E0D458C450043349
:10221800C4188C42F9D30A4A0A4C002301E013601F
:102228000432A242FBD300F019F8FFF72BFFFEE7B8
:10223800004002200000002048000020E42200089E
:10224800480000203C010020FEE70300821893426A
:1022580000D1704719700133F9E7000070B5002606
:102268000C4C0D4D641BA410A64209D1002600F0A9
:1022780019F80A4C0A4D641BA410A64205D170BD7A
:10228800B300EB5898470136EEE7B300EB58984790
:102298000136F2E7DC220008DC220008E022000810
:1022A800DC220008F8B5C046F8BC08BC9E4670475A
:0C22B800F8B5C046F8BC08BC9E46704754
:1022C4000202020202020202446573636F6E6563D6
:0822D4007461646F000000005A
:0422DC00E100000815
:0422E000B900000839
:1022E40000C0000000025735353030000000000007
:1022F400051200080F120008191200082312000822
:102304002D12000843120008000000000000000025
:102314000008DC010203C0A8007BFFFFFF00C0A887
:0823240000010808080801008F
:0400000508002201CC
:00000001FF
